{
  "contractName": "HeroEscrow",
  "abi": [
    {
      "anonymous": false,
      "inputs": [
        {
          "indexed": false,
          "internalType": "uint256",
          "name": "tradeId",
          "type": "uint256"
        }
      ],
      "name": "NFTDeposited",
      "type": "event"
    },
    {
      "anonymous": false,
      "inputs": [
        {
          "indexed": false,
          "internalType": "uint256",
          "name": "tradeId",
          "type": "uint256"
        }
      ],
      "name": "TradeCompleted",
      "type": "event"
    },
    {
      "anonymous": false,
      "inputs": [
        {
          "indexed": false,
          "internalType": "uint256",
          "name": "tradeId",
          "type": "uint256"
        }
      ],
      "name": "TradeCreated",
      "type": "event"
    },
    {
      "inputs": [
        {
          "internalType": "uint256",
          "name": "",
          "type": "uint256"
        }
      ],
      "name": "trades",
      "outputs": [
        {
          "internalType": "uint256",
          "name": "tokenId",
          "type": "uint256"
        },
        {
          "internalType": "address payable",
          "name": "seller",
          "type": "address"
        },
        {
          "internalType": "address payable",
          "name": "buyer",
          "type": "address"
        },
        {
          "internalType": "uint256",
          "name": "price",
          "type": "uint256"
        },
        {
          "internalType": "bool",
          "name": "isDeposited",
          "type": "bool"
        },
        {
          "internalType": "bool",
          "name": "isCompleted",
          "type": "bool"
        }
      ],
      "stateMutability": "view",
      "type": "function",
      "constant": true
    },
    {
      "inputs": [
        {
          "internalType": "uint256",
          "name": "tokenId",
          "type": "uint256"
        },
        {
          "internalType": "address",
          "name": "buyer",
          "type": "address"
        },
        {
          "internalType": "uint256",
          "name": "price",
          "type": "uint256"
        }
      ],
      "name": "createTrade",
      "outputs": [],
      "stateMutability": "nonpayable",
      "type": "function"
    },
    {
      "inputs": [
        {
          "internalType": "uint256",
          "name": "tradeId",
          "type": "uint256"
        }
      ],
      "name": "depositNFT",
      "outputs": [],
      "stateMutability": "nonpayable",
      "type": "function"
    },
    {
      "inputs": [
        {
          "internalType": "uint256",
          "name": "tradeId",
          "type": "uint256"
        }
      ],
      "name": "executeTrade",
      "outputs": [],
      "stateMutability": "payable",
      "type": "function",
      "payable": true
    },
    {
      "inputs": [
        {
          "internalType": "bool",
          "name": "approved",
          "type": "bool"
        }
      ],
      "name": "setApprovalForAllNFT",
      "outputs": [],
      "stateMutability": "nonpayable",
      "type": "function"
    }
  ],
  "bytecode": "0x608060405234801561001057600080fd5b50610fee806100206000396000f3fe60806040526004361061004a5760003560e01c806302d2838b1461004f578063094569f21461006b5780631e6c598e14610094578063d6a93206146100d6578063e91a7ca6146100ff575b600080fd5b610069600480360381019061006491906109ac565b610128565b005b34801561007757600080fd5b50610092600480360381019061008d91906109d5565b610465565b005b3480156100a057600080fd5b506100bb60048036038101906100b691906109ac565b610612565b6040516100cd96959493929190610df9565b60405180910390f35b3480156100e257600080fd5b506100fd60048036038101906100f8919061095a565b6106a8565b005b34801561010b57600080fd5b50610126600480360381019061012191906109ac565b61072c565b005b60006001600083815260200190815260200160002090508060020160009054906101000a900473ffffffffffffffffffffffffffffffffffffffff1673ffffffffffffffffffffffffffffffffffffffff163373ffffffffffffffffffffffffffffffffffffffff16146101d1576040517f08c379a00000000000000000000000000000000000000000000000000000000081526004016101c890610dbe565b60405180910390fd5b8060040160019054906101000a900460ff1615610223576040517f08c379a000000000000000000000000000000000000000000000000000000000815260040161021a90610d9e565b60405180910390fd5b8060040160009054906101000a900460ff16610274576040517f08c379a000000000000000000000000000000000000000000000000000000000815260040161026b90610d5e565b60405180910390fd5b806003015434146102ba576040517f08c379a00000000000000000000000000000000000000000000000000000000081526004016102b190610d3e565b60405180910390fd5b7330c103f8f5a3a732dfe2dce1cc9446f545527b4373ffffffffffffffffffffffffffffffffffffffff166323b872dd338360010160009054906101000a900473ffffffffffffffffffffffffffffffffffffffff1684600301546040518463ffffffff1660e01b815260040161033393929190610c87565b602060405180830381600087803b15801561034d57600080fd5b505af1158015610361573d6000803e3d6000fd5b505050506040513d601f19601f820116820180604052508101906103859190610983565b5073268cc8248ffb72cd5f3e73a9a20fa2ff40efba6173ffffffffffffffffffffffffffffffffffffffff166323b872dd303384600001546040518463ffffffff1660e01b81526004016103db93929190610cbe565b600060405180830381600087803b1580156103f557600080fd5b505af1158015610409573d6000803e3d6000fd5b5050505060018160040160016101000a81548160ff0219169083151502179055507f60f91a26281f20fb528663f4da55773c83e2ee8a7a5dddb6d1753749e81dc49b826040516104599190610dde565b60405180910390a15050565b60008081548092919061047790610efb565b91905055506040518060c001604052808481526020013373ffffffffffffffffffffffffffffffffffffffff1681526020018373ffffffffffffffffffffffffffffffffffffffff1681526020018281526020016000151581526020016000151581525060016000805481526020019081526020016000206000820151816000015560208201518160010160006101000a81548173ffffffffffffffffffffffffffffffffffffffff021916908373ffffffffffffffffffffffffffffffffffffffff16021790555060408201518160020160006101000a81548173ffffffffffffffffffffffffffffffffffffffff021916908373ffffffffffffffffffffffffffffffffffffffff1602179055506060820151816003015560808201518160040160006101000a81548160ff02191690831515021790555060a08201518160040160016101000a81548160ff0219169083151502179055509050507f47a04fa00a09d140923dcfbeb2757b5576b75cdce002471b05afac2b598dd5f86000546040516106059190610dde565b60405180910390a1505050565b60016020528060005260406000206000915090508060000154908060010160009054906101000a900473ffffffffffffffffffffffffffffffffffffffff16908060020160009054906101000a900473ffffffffffffffffffffffffffffffffffffffff16908060030154908060040160009054906101000a900460ff16908060040160019054906101000a900460ff16905086565b73268cc8248ffb72cd5f3e73a9a20fa2ff40efba6173ffffffffffffffffffffffffffffffffffffffff1663a22cb46533836040518363ffffffff1660e01b81526004016106f7929190610cf5565b600060405180830381600087803b15801561071157600080fd5b505af1158015610725573d6000803e3d6000fd5b5050505050565b60006001600083815260200190815260200160002090508060010160009054906101000a900473ffffffffffffffffffffffffffffffffffffffff1673ffffffffffffffffffffffffffffffffffffffff163373ffffffffffffffffffffffffffffffffffffffff16146107d5576040517f08c379a00000000000000000000000000000000000000000000000000000000081526004016107cc90610d7e565b60405180910390fd5b8060040160009054906101000a900460ff1615610827576040517f08c379a000000000000000000000000000000000000000000000000000000000815260040161081e90610d1e565b60405180910390fd5b73268cc8248ffb72cd5f3e73a9a20fa2ff40efba6173ffffffffffffffffffffffffffffffffffffffff166323b872dd333084600001546040518463ffffffff1660e01b815260040161087c93929190610cbe565b600060405180830381600087803b15801561089657600080fd5b505af11580156108aa573d6000803e3d6000fd5b5050505060018160040160006101000a81548160ff0219169083151502179055507ff36d7a61da5869f1f725b62b3414422372ff984566d321f9758ec768fb859a88826040516108fa9190610dde565b60405180910390a15050565b60008135905061091581610f73565b92915050565b60008135905061092a81610f8a565b92915050565b60008151905061093f81610f8a565b92915050565b60008135905061095481610fa1565b92915050565b60006020828403121561096c57600080fd5b600061097a8482850161091b565b91505092915050565b60006020828403121561099557600080fd5b60006109a384828501610930565b91505092915050565b6000602082840312156109be57600080fd5b60006109cc84828501610945565b91505092915050565b6000806000606084860312156109ea57600080fd5b60006109f886828701610945565b9350506020610a0986828701610906565b9250506040610a1a86828701610945565b9150509250925092565b610a2d81610ec5565b82525050565b610a3c81610e7d565b82525050565b610a4b81610e6b565b82525050565b610a5a81610e8f565b82525050565b6000610a6d602c83610e5a565b91507f4865726f204e465420697320616c7265616479206465706f736974656420696e60008301527f746f20636f6e74726163742e00000000000000000000000000000000000000006020830152604082019050919050565b6000610ad3601683610e5a565b91507f496e76616c6964207061796d656e7420616d6f756e74000000000000000000006000830152602082019050919050565b6000610b13602d83610e5a565b91507f4865726f204e4654206973206e6f7420796574206465706f736974656420696e60008301527f20746f20636f6e74726163742e000000000000000000000000000000000000006020830152604082019050919050565b6000610b79602983610e5a565b91507f4f6e6c79207468652073656c6c65722063616e206465706f736974207468652060008301527f6865726f204e46542e00000000000000000000000000000000000000000000006020830152604082019050919050565b6000610bdf601b83610e5a565b91507f547261646520697320616c726561647920636f6d706c657465642e00000000006000830152602082019050919050565b6000610c1f603083610e5a565b91507f4f6e6c79207468652064657369676e617465642062757965722063616e20657860008301527f6563757465207468652074726164652e000000000000000000000000000000006020830152604082019050919050565b610c8181610ebb565b82525050565b6000606082019050610c9c6000830186610a42565b610ca96020830185610a24565b610cb66040830184610c78565b949350505050565b6000606082019050610cd36000830186610a42565b610ce06020830185610a42565b610ced6040830184610c78565b949350505050565b6000604082019050610d0a6000830185610a42565b610d176020830184610a51565b9392505050565b60006020820190508181036000830152610d3781610a60565b9050919050565b60006020820190508181036000830152610d5781610ac6565b9050919050565b60006020820190508181036000830152610d7781610b06565b9050919050565b60006020820190508181036000830152610d9781610b6c565b9050919050565b60006020820190508181036000830152610db781610bd2565b9050919050565b60006020820190508181036000830152610dd781610c12565b9050919050565b6000602082019050610df36000830184610c78565b92915050565b600060c082019050610e0e6000830189610c78565b610e1b6020830188610a33565b610e286040830187610a33565b610e356060830186610c78565b610e426080830185610a51565b610e4f60a0830184610a51565b979650505050505050565b600082825260208201905092915050565b6000610e7682610e9b565b9050919050565b6000610e8882610e9b565b9050919050565b60008115159050919050565b600073ffffffffffffffffffffffffffffffffffffffff82169050919050565b6000819050919050565b6000610ed082610ed7565b9050919050565b6000610ee282610ee9565b9050919050565b6000610ef482610e9b565b9050919050565b6000610f0682610ebb565b91507fffffffffffffffffffffffffffffffffffffffffffffffffffffffffffffffff821415610f3957610f38610f44565b5b600182019050919050565b7f4e487b7100000000000000000000000000000000000000000000000000000000600052601160045260246000fd5b610f7c81610e6b565b8114610f8757600080fd5b50565b610f9381610e8f565b8114610f9e57600080fd5b50565b610faa81610ebb565b8114610fb557600080fd5b5056fea264697066735822122023941f4c8fc42fba31a849ee6c846dce7b92d7fe85f29c8fd8b62cb3561a428c64736f6c63430008000033",
  "immutableReferences": {},
  "source": "// SPDX-License-Identifier: UNLICENSED\r\n// This code is released under the Unlicense, a public domain dedication.\r\n\r\npragma solidity ^0.8.0;\r\n\r\nimport \"@openzeppelin/contracts/token/ERC721/IERC721.sol\";\r\nimport \"@openzeppelin/contracts/token/ERC20/IERC20.sol\";\r\n\r\ncontract HeroEscrow {\r\n    struct Trade {\r\n        uint256 tokenId;\r\n        address payable seller;\r\n        address payable buyer;\r\n        uint256 price;\r\n        bool isDeposited;\r\n        bool isCompleted;\r\n    }\r\n\r\n    uint256 private tradeCounter;\r\n    mapping(uint256 => Trade) public trades;\r\n\r\n    address constant JEWEL_TOKEN = 0x30C103f8f5A3A732DFe2dCE1Cc9446f545527b43;\r\n    address constant HERO_CORE_NFT = 0x268CC8248FFB72Cd5F3e73A9a20Fa2FF40EfbA61;\r\n\r\n    event TradeCreated(uint256 tradeId);\r\n    event NFTDeposited(uint256 tradeId);\r\n    event TradeCompleted(uint256 tradeId);\r\n\r\n    function createTrade(\r\n        uint256 tokenId,\r\n        address buyer,\r\n        uint256 price\r\n    ) public {\r\n        tradeCounter++;\r\n        trades[tradeCounter] = Trade({\r\n            tokenId: tokenId,\r\n            seller: payable(msg.sender),\r\n            buyer: payable(buyer),\r\n            price: price,\r\n            isDeposited: false,\r\n            isCompleted: false\r\n        });\r\n        emit TradeCreated(tradeCounter);\r\n    }\r\n\r\n    function depositNFT(uint256 tradeId) public {\r\n        Trade storage trade = trades[tradeId];\r\n        require(msg.sender == trade.seller, \"Only the seller can deposit the hero NFT.\");\r\n        require(!trade.isDeposited, \"Hero NFT is already deposited into contract.\");\r\n\r\n        IERC721(HERO_CORE_NFT).transferFrom(msg.sender, address(this), trade.tokenId);\r\n        trade.isDeposited = true;\r\n        emit NFTDeposited(tradeId);\r\n    }\r\n\r\n    function executeTrade(uint256 tradeId) public payable {\r\n        Trade storage trade = trades[tradeId];\r\n        require(msg.sender == trade.buyer, \"Only the designated buyer can execute the trade.\");\r\n        require(!trade.isCompleted, \"Trade is already completed.\");\r\n        require(trade.isDeposited, \"Hero NFT is not yet deposited in to contract.\");\r\n        require(msg.value == trade.price, \"Invalid payment amount\");\r\n\r\n        IERC20(JEWEL_TOKEN).transferFrom(msg.sender, trade.seller, trade.price);\r\n        IERC721(HERO_CORE_NFT).transferFrom(address(this), msg.sender, trade.tokenId);\r\n        trade.isCompleted = true;\r\n        emit TradeCompleted(tradeId);\r\n    }\r\n\r\n    function setApprovalForAllNFT(bool approved) public {\r\n        IERC721(HERO_CORE_NFT).setApprovalForAll(msg.sender, approved);\r\n    }\r\n}",
  "sourcePath": "C:\\Users\\aal\\Desktop\\code\\dfk_hero_escrow\\contracts\\hero_escrow.sol",
  "compiler": {
    "name": "solc",
    "version": "0.8.0+commit.c7dfd78e.Emscripten.clang"
  },
  "schemaVersion": "3.4.13",
  "updatedAt": "2023-03-27T18:44:01.890Z",
  "networkType": "ethereum",
  "devdoc": {
    "kind": "dev",
    "methods": {},
    "version": 1
  },
  "userdoc": {
    "kind": "user",
    "methods": {},
    "version": 1
  }
}