{
  "contractName": "HeroEscrow",
  "abi": [
    {
      "anonymous": false,
      "inputs": [
        {
          "indexed": true,
          "internalType": "uint256",
          "name": "tradeId",
          "type": "uint256"
        },
        {
          "indexed": true,
          "internalType": "uint256",
          "name": "tokenId",
          "type": "uint256"
        },
        {
          "indexed": true,
          "internalType": "address",
          "name": "seller",
          "type": "address"
        },
        {
          "indexed": false,
          "internalType": "address",
          "name": "buyer",
          "type": "address"
        },
        {
          "indexed": false,
          "internalType": "uint256",
          "name": "price",
          "type": "uint256"
        }
      ],
      "name": "TradeCanceled",
      "type": "event"
    },
    {
      "anonymous": false,
      "inputs": [
        {
          "indexed": true,
          "internalType": "uint256",
          "name": "tradeId",
          "type": "uint256"
        },
        {
          "indexed": true,
          "internalType": "uint256",
          "name": "tokenId",
          "type": "uint256"
        },
        {
          "indexed": true,
          "internalType": "address",
          "name": "seller",
          "type": "address"
        },
        {
          "indexed": false,
          "internalType": "address",
          "name": "buyer",
          "type": "address"
        },
        {
          "indexed": false,
          "internalType": "uint256",
          "name": "price",
          "type": "uint256"
        }
      ],
      "name": "TradeCreated",
      "type": "event"
    },
    {
      "anonymous": false,
      "inputs": [
        {
          "indexed": true,
          "internalType": "uint256",
          "name": "tradeId",
          "type": "uint256"
        },
        {
          "indexed": true,
          "internalType": "uint256",
          "name": "tokenId",
          "type": "uint256"
        },
        {
          "indexed": true,
          "internalType": "address",
          "name": "seller",
          "type": "address"
        },
        {
          "indexed": false,
          "internalType": "address",
          "name": "buyer",
          "type": "address"
        },
        {
          "indexed": false,
          "internalType": "uint256",
          "name": "price",
          "type": "uint256"
        }
      ],
      "name": "TradeExecuted",
      "type": "event"
    },
    {
      "inputs": [
        {
          "internalType": "address",
          "name": "",
          "type": "address"
        },
        {
          "internalType": "address",
          "name": "",
          "type": "address"
        },
        {
          "internalType": "uint256",
          "name": "",
          "type": "uint256"
        },
        {
          "internalType": "bytes",
          "name": "",
          "type": "bytes"
        }
      ],
      "name": "onERC721Received",
      "outputs": [
        {
          "internalType": "bytes4",
          "name": "",
          "type": "bytes4"
        }
      ],
      "stateMutability": "nonpayable",
      "type": "function"
    },
    {
      "inputs": [
        {
          "internalType": "uint256",
          "name": "",
          "type": "uint256"
        }
      ],
      "name": "tradeIds",
      "outputs": [
        {
          "internalType": "uint256",
          "name": "",
          "type": "uint256"
        }
      ],
      "stateMutability": "view",
      "type": "function",
      "constant": true
    },
    {
      "inputs": [
        {
          "internalType": "uint256",
          "name": "",
          "type": "uint256"
        }
      ],
      "name": "trades",
      "outputs": [
        {
          "internalType": "uint256",
          "name": "tradeId",
          "type": "uint256"
        },
        {
          "internalType": "uint256",
          "name": "tokenId",
          "type": "uint256"
        },
        {
          "internalType": "address payable",
          "name": "seller",
          "type": "address"
        },
        {
          "internalType": "address payable",
          "name": "buyer",
          "type": "address"
        },
        {
          "internalType": "uint256",
          "name": "price",
          "type": "uint256"
        },
        {
          "internalType": "bool",
          "name": "nftDeposited",
          "type": "bool"
        },
        {
          "internalType": "bool",
          "name": "executed",
          "type": "bool"
        },
        {
          "internalType": "bool",
          "name": "canceled",
          "type": "bool"
        }
      ],
      "stateMutability": "view",
      "type": "function",
      "constant": true
    },
    {
      "inputs": [
        {
          "internalType": "uint256",
          "name": "tokenId",
          "type": "uint256"
        },
        {
          "internalType": "address payable",
          "name": "buyer",
          "type": "address"
        },
        {
          "internalType": "uint256",
          "name": "price",
          "type": "uint256"
        }
      ],
      "name": "createTrade",
      "outputs": [],
      "stateMutability": "nonpayable",
      "type": "function"
    },
    {
      "inputs": [
        {
          "internalType": "uint256",
          "name": "tradeId",
          "type": "uint256"
        }
      ],
      "name": "executeTrade",
      "outputs": [],
      "stateMutability": "nonpayable",
      "type": "function"
    },
    {
      "inputs": [
        {
          "internalType": "uint256",
          "name": "tradeId",
          "type": "uint256"
        }
      ],
      "name": "cancelTrade",
      "outputs": [],
      "stateMutability": "nonpayable",
      "type": "function"
    },
    {
      "inputs": [],
      "name": "getActiveTrades",
      "outputs": [
        {
          "components": [
            {
              "internalType": "uint256",
              "name": "tradeId",
              "type": "uint256"
            },
            {
              "internalType": "uint256",
              "name": "tokenId",
              "type": "uint256"
            },
            {
              "internalType": "address payable",
              "name": "seller",
              "type": "address"
            },
            {
              "internalType": "address payable",
              "name": "buyer",
              "type": "address"
            },
            {
              "internalType": "uint256",
              "name": "price",
              "type": "uint256"
            },
            {
              "internalType": "bool",
              "name": "nftDeposited",
              "type": "bool"
            },
            {
              "internalType": "bool",
              "name": "executed",
              "type": "bool"
            },
            {
              "internalType": "bool",
              "name": "canceled",
              "type": "bool"
            }
          ],
          "internalType": "struct HeroEscrow.Trade[]",
          "name": "",
          "type": "tuple[]"
        }
      ],
      "stateMutability": "view",
      "type": "function",
      "constant": true
    }
  ],
  "bytecode": "0x608060405234801561001057600080fd5b5060016000556114ee806100256000396000f3fe608060405234801561001057600080fd5b506004361061007d5760003560e01c806309ec6cc71161005b57806309ec6cc7146100c8578063150b7a02146100db5780631e6c598e146100fb578063ff52c484146101225761007d565b806302d2838b14610082578063094569f2146100975780630954d6dc146100aa575b600080fd5b610095610090366004610fed565b610142565b005b6100956100a536600461101d565b6105b3565b6100b261096d565b6040516100bf91906110c5565b60405180910390f35b6100956100d6366004610fed565b610c2e565b6100ee6100e9366004610efd565b610dd4565b6040516100bf9190611178565b61010e610109366004610fed565b610de4565b6040516100bf9897969594939291906113e7565b610135610130366004610fed565b610e4f565b6040516100bf91906113de565b61014a610e61565b600060016101588184611445565b8154811061017657634e487b7160e01b600052603260045260246000fd5b600091825260209091206006909102016005810154909150610100900460ff16156101bc5760405162461bcd60e51b81526004016101b390611246565b60405180910390fd5b600581015460ff1615156001146101e55760405162461bcd60e51b81526004016101b3906112d3565b60038101546001600160a01b03166101fb610e8b565b6001600160a01b0316146102215760405162461bcd60e51b81526004016101b390611302565b600481015460028201547330c103f8f5a3a732dfe2dce1cc9446f545527b4391906001600160a01b031681836370a0823161025a610e8b565b6040518263ffffffff1660e01b8152600401610276919061105a565b60206040518083038186803b15801561028e57600080fd5b505afa1580156102a2573d6000803e3d6000fd5b505050506040513d601f19601f820116820180604052508101906102c69190611005565b10156102e45760405162461bcd60e51b81526004016101b3906111c4565b81836001600160a01b031663dd62ed3e6102fc610e8b565b306040518363ffffffff1660e01b815260040161031a929190611087565b60206040518083038186803b15801561033257600080fd5b505afa158015610346573d6000803e3d6000fd5b505050506040513d601f19601f8201168201806040525081019061036a9190611005565b10156103885760405162461bcd60e51b81526004016101b3906111fb565b836004015482146103ab5760405162461bcd60e51b81526004016101b390611276565b826001600160a01b03166323b872dd6103c2610e8b565b30856040518463ffffffff1660e01b81526004016103e2939291906110a1565b602060405180830381600087803b1580156103fc57600080fd5b505af1158015610410573d6000803e3d6000fd5b505050506040513d601f19601f820116820180604052508101906104349190610fcd565b5060038401546001850154604051632142170760e11b815273268cc8248ffb72cd5f3e73a9a20fa2ff40efba619283926342842e0e926104849230926001600160a01b03909116916004016110a1565b600060405180830381600087803b15801561049e57600080fd5b505af11580156104b2573d6000803e3d6000fd5b505060405163a9059cbb60e01b81526001600160a01b038716925063a9059cbb91506104e4908590879060040161106e565b602060405180830381600087803b1580156104fe57600080fd5b505af1158015610512573d6000803e3d6000fd5b505050506040513d601f19601f820116820180604052508101906105369190610fcd565b5060058501805461ff001916610100179055600285015460018601548654600388015460048901546040516001600160a01b03958616957f8ef392564cc8983eb86cc25f1c01e805d7b2428c58345b9bff17e183926e76a99361059b9391169161106e565b60405180910390a450505050506105b0610e8f565b50565b6105bb610e8b565b6001600160a01b031673268cc8248ffb72cd5f3e73a9a20fa2ff40efba616001600160a01b0316636352211e856040518263ffffffff1660e01b815260040161060491906113de565b60206040518083038186803b15801561061c57600080fd5b505afa158015610630573d6000803e3d6000fd5b505050506040513d601f19601f820116820180604052508101906106549190610eda565b6001600160a01b03161461067a5760405162461bcd60e51b81526004016101b3906113a7565b6000811161069a5760405162461bcd60e51b81526004016101b390611339565b6040516331a9108f60e11b815260009073268cc8248ffb72cd5f3e73a9a20fa2ff40efba6190636352211e906106d49087906004016113de565b60206040518083038186803b1580156106ec57600080fd5b505afa158015610700573d6000803e3d6000fd5b505050506040513d601f19601f820116820180604052508101906107249190610eda565b60405163095ea7b360e01b815290915073268cc8248ffb72cd5f3e73a9a20fa2ff40efba619063095ea7b390610760903090889060040161106e565b600060405180830381600087803b15801561077a57600080fd5b505af115801561078e573d6000803e3d6000fd5b5050505073268cc8248ffb72cd5f3e73a9a20fa2ff40efba616001600160a01b03166342842e0e6107bd610e8b565b30876040518463ffffffff1660e01b81526004016107dd939291906110a1565b600060405180830381600087803b1580156107f757600080fd5b505af115801561080b573d6000803e3d6000fd5b505050506001604051806101000160405280600180549050600161082f919061142d565b815260208082018890526001600160a01b03858116604080850182905289831660608087019190915260808087018b9052600160a0808901829052600060c0808b0182905260e09a8b018290528c548085018e559c8252908990208b516006909d02019b8c55978a01518b8301559389015160028b0180546001600160a01b03199081169289169290921790559289015160038b01805490941696169590951790915586015160048801558501516005909601805493860151959094015160ff199093169515159590951761ff001916610100941515949094029390931762ff0000191662010000911515919091021790558054869161092e91611445565b7f9becbc521284618037076683d5a5133152df3ecd867be2d0f953f6bd62f0faab868660405161095f92919061106e565b60405180910390a450505050565b60606000805b600154811015610a2c576001818154811061099e57634e487b7160e01b600052603260045260246000fd5b906000526020600020906006020160050160019054906101000a900460ff16158015610a075750600181815481106109e657634e487b7160e01b600052603260045260246000fd5b906000526020600020906006020160050160029054906101000a900460ff16155b15610a1a5781610a168161145c565b9250505b80610a248161145c565b915050610973565b5060008167ffffffffffffffff811115610a5657634e487b7160e01b600052604160045260246000fd5b604051908082528060200260200182016040528015610a8f57816020015b610a7c610e96565b815260200190600190039081610a745790505b5090506000805b600154811015610c255760018181548110610ac157634e487b7160e01b600052603260045260246000fd5b906000526020600020906006020160050160019054906101000a900460ff16158015610b2a575060018181548110610b0957634e487b7160e01b600052603260045260246000fd5b906000526020600020906006020160050160029054906101000a900460ff16155b15610c135760018181548110610b5057634e487b7160e01b600052603260045260246000fd5b600091825260209182902060408051610100808201835260069094029092018054835260018101549483019490945260028401546001600160a01b039081169183019190915260038401541660608201526004830154608082015260059092015460ff808216151560a08501529181048216151560c084015262010000900416151560e08201528351849084908110610bf957634e487b7160e01b600052603260045260246000fd5b60200260200101819052508180610c0f9061145c565b9250505b80610c1d8161145c565b915050610a96565b50909250505090565b610c36610e61565b60006001610c448184611445565b81548110610c6257634e487b7160e01b600052603260045260246000fd5b600091825260209091206006909102016005810154909150610100900460ff1615610c9f5760405162461bcd60e51b81526004016101b390611246565b60028101546001600160a01b0316610cb5610e8b565b6001600160a01b031614610cdb5760405162461bcd60e51b81526004016101b39061118d565b60028101546001820154604051632142170760e11b815273268cc8248ffb72cd5f3e73a9a20fa2ff40efba619283926342842e0e92610d2a9230926001600160a01b03909116916004016110a1565b600060405180830381600087803b158015610d4457600080fd5b505af1158015610d58573d6000803e3d6000fd5b50505060058301805462ff000019166201000017905550600282015460018301548354600385015460048601546040516001600160a01b03958616957f07403eb9d694f7f85f11ec16366812fe8bacf3bc8a93f69b706a2e6db6cc102093610dc29391169161106e565b60405180910390a450506105b0610e8f565b630a85bd0160e11b949350505050565b60018181548110610df457600080fd5b600091825260209091206006909102018054600182015460028301546003840154600485015460059095015493955091936001600160a01b0391821693929091169160ff808216916101008104821691620100009091041688565b60026020526000908152604090205481565b60026000541415610e845760405162461bcd60e51b81526004016101b390611370565b6002600055565b3390565b6001600055565b6040805161010081018252600080825260208201819052918101829052606081018290526080810182905260a0810182905260c0810182905260e081019190915290565b600060208284031215610eeb578081fd5b8151610ef6816114a3565b9392505050565b60008060008060808587031215610f12578283fd5b8435610f1d816114a3565b9350602085810135610f2e816114a3565b935060408601359250606086013567ffffffffffffffff80821115610f51578384fd5b818801915088601f830112610f64578384fd5b813581811115610f7657610f7661148d565b604051601f8201601f1916810185018381118282101715610f9957610f9961148d565b60405281815283820185018b1015610faf578586fd5b81858501868301379081019093019390935250939692955090935050565b600060208284031215610fde578081fd5b81518015158114610ef6578182fd5b600060208284031215610ffe578081fd5b5035919050565b600060208284031215611016578081fd5b5051919050565b600080600060608486031215611031578283fd5b833592506020840135611043816114a3565b929592945050506040919091013590565b15159052565b6001600160a01b0391909116815260200190565b6001600160a01b03929092168252602082015260400190565b6001600160a01b0392831681529116602082015260400190565b6001600160a01b039384168152919092166020820152604081019190915260600190565b602080825282518282018190526000919060409081850190868401855b8281101561116b578151805185528681015187860152858101516001600160a01b0390811687870152606080830151909116908601526080808201519086015260a08082015115159086015260c08082015161114082880182611054565b505060e0908101519061115586820183611054565b50506101009390930192908501906001016110e2565b5091979650505050505050565b6001600160e01b031991909116815260200190565b6020808252601c908201527f4f6e6c792073656c6c65722063616e2063616e63656c20747261646500000000604082015260600190565b6020808252601a908201527f496e73756666696369656e74204a4557454c2062616c616e6365000000000000604082015260600190565b6020808252602b908201527f436f6e7472616374206e6f7420617070726f76656420746f207370656e64204a60408201526a4557454c20746f6b656e7360a81b606082015260800190565b602080825260169082015275151c98591948185b1c9958591e48195e1958dd5d195960521b604082015260600190565b60208082526037908201527f53656e74204a4557454c20616d6f756e7420646f6573206e6f74206d6174636860408201527f20746865207072696365206f6620746865207472616465000000000000000000606082015260800190565b602080825260159082015274139195081b9bdd0819195c1bdcda5d1959081e595d605a1b604082015260600190565b6020808252601c908201527f4f6e6c792062757965722063616e206578656375746520747261646500000000604082015260600190565b6020808252601d908201527f5072696365206d7573742062652067726561746572207468616e20302e000000604082015260600190565b6020808252601f908201527f5265656e7472616e637947756172643a207265656e7472616e742063616c6c00604082015260600190565b60208082526018908201527f596f7520646f6e2774206f776e2074686973206865726f2e0000000000000000604082015260600190565b90815260200190565b97885260208801969096526001600160a01b039485166040880152929093166060860152608085015290151560a0840152151560c0830152151560e08201526101000190565b6000821982111561144057611440611477565b500190565b60008282101561145757611457611477565b500390565b600060001982141561147057611470611477565b5060010190565b634e487b7160e01b600052601160045260246000fd5b634e487b7160e01b600052604160045260246000fd5b6001600160a01b03811681146105b057600080fdfea2646970667358221220f2f46e5635db2e84b350271708cd11475ae9eae95c2cd3f5aa1ad6697ff9346564736f6c63430008000033",
  "immutableReferences": {},
  "source": "// SPDX-License-Identifier: UNLICENSED\r\n// This code is released under the Unlicense, a public domain dedication.\r\n\r\npragma solidity ^0.8.0;\r\n\r\nimport \"@openzeppelin/contracts/token/ERC20/IERC20.sol\";\r\nimport \"@openzeppelin/contracts/token/ERC721/IERC721.sol\";\r\nimport \"@openzeppelin/contracts/utils/Context.sol\";\r\nimport \"@openzeppelin/contracts/token/ERC721/utils/ERC721Holder.sol\";\r\nimport \"@openzeppelin/contracts/security/ReentrancyGuard.sol\";\r\n\r\n\r\ncontract HeroEscrow is Context, ERC721Holder, ReentrancyGuard {\r\n    address constant HERO_NFT = 0x268CC8248FFB72Cd5F3e73A9a20Fa2FF40EfbA61;\r\n    address constant JEWEL_TOKEN = 0x30C103f8f5A3A732DFe2dCE1Cc9446f545527b43;\r\n\r\n    struct Trade {\r\n        uint256 tradeId;\r\n        uint256 tokenId;\r\n        address payable seller;\r\n        address payable buyer;\r\n        uint256 price;\r\n        bool nftDeposited;\r\n        bool executed;\r\n        bool canceled;\r\n    }\r\n\r\n    Trade[] public trades;\r\n    mapping(uint256 => uint256) public tradeIds;\r\n\r\n    function createTrade(uint256 tokenId, address payable buyer, uint256 price) public {\r\n        require(IERC721(HERO_NFT).ownerOf(tokenId) == _msgSender(), \"You don't own this hero.\");\r\n        require(price > 0, \"Price must be greater than 0.\");\r\n\r\n        // Get the seller's address\r\n        address payable seller = payable(IERC721(HERO_NFT).ownerOf(tokenId));\r\n\r\n        // Allow the contract to spend DFK Hero NFTs\r\n        IERC721(HERO_NFT).approve(address(this), tokenId);\r\n\r\n        // Transfer the NFT from the seller to the contract\r\n        IERC721(HERO_NFT).safeTransferFrom(_msgSender(), address(this), tokenId);\r\n\r\n        // Create the trade\r\n        trades.push(\r\n            Trade({\r\n            tradeId: trades.length + 1,\r\n            tokenId: tokenId,\r\n            seller: seller,\r\n            buyer: buyer,\r\n            price: price,\r\n            nftDeposited: true,\r\n            executed: false,\r\n            canceled: false\r\n            })\r\n        );\r\n\r\n        emit TradeCreated(trades.length - 1, tokenId, seller, buyer, price);\r\n    }\r\n\r\n    function executeTrade(uint256 tradeId) public nonReentrant {\r\n        Trade storage trade = trades[tradeId - 1];\r\n        require(trade.executed == false, \"Trade already executed\");\r\n        require(trade.nftDeposited == true, \"NFT not deposited yet\");\r\n        require(_msgSender() == trade.buyer, \"Only buyer can execute trade\");\r\n\r\n        IERC20 jewelContract = IERC20(JEWEL_TOKEN);\r\n        uint256 jewelAmount = trade.price;\r\n        address payable seller = trade.seller;\r\n\r\n        // Verify buyer has enough JEWEL to buy the NFT\r\n        require(jewelContract.balanceOf(_msgSender()) >= jewelAmount, \"Insufficient JEWEL balance\");\r\n\r\n        // Check if contract is approved to transfer enough JEWEL tokens\r\n        require(jewelContract.allowance(_msgSender(), address(this)) >= jewelAmount, \"Contract not approved to spend JEWEL tokens\");\r\n\r\n        // Check if the sent JEWEL amount matches the price of the trade\r\n        require(jewelAmount == trade.price, \"Sent JEWEL amount does not match the price of the trade\");\r\n\r\n        // Transfer JEWEL tokens from buyer to contract\r\n        jewelContract.transferFrom(_msgSender(), address(this), jewelAmount);\r\n\r\n        // Transfer NFT from contract to buyer\r\n        IERC721 heroContract = IERC721(HERO_NFT);\r\n        heroContract.safeTransferFrom(address(this), trade.buyer, trade.tokenId);\r\n\r\n        // Transfer JEWEL tokens from contract to seller\r\n        jewelContract.transfer(seller, jewelAmount);\r\n\r\n        trade.executed = true;\r\n        emit TradeExecuted(trade.tradeId, trade.tokenId, trade.seller, trade.buyer, trade.price);\r\n    }\r\n\r\n    function cancelTrade(uint256 tradeId) public nonReentrant {\r\n        Trade storage trade = trades[tradeId - 1];\r\n        require(trade.executed == false, \"Trade already executed\");\r\n        require(_msgSender() == trade.seller, \"Only seller can cancel trade\");\r\n\r\n        IERC721 heroContract = IERC721(HERO_NFT);\r\n        heroContract.safeTransferFrom(address(this), trade.seller, trade.tokenId);\r\n\r\n        trade.canceled = true;\r\n\r\n        emit TradeCanceled(trade.tradeId, trade.tokenId, trade.seller, trade.buyer, trade.price);\r\n    }\r\n\r\n    function getActiveTrades() public view returns (Trade[] memory) {\r\n        uint256 tradeCount = 0;\r\n        for (uint i = 0; i < trades.length; i++) {\r\n            if (!trades[i].executed && !trades[i].canceled) {\r\n                tradeCount++;\r\n            }\r\n        }\r\n        Trade[] memory activeTrades = new Trade[](tradeCount);\r\n        uint256 j = 0;\r\n        for (uint k = 0; k < trades.length; k++) {\r\n            if (!trades[k].executed && !trades[k].canceled) {\r\n                activeTrades[j] = trades[k];\r\n                j++;\r\n            }\r\n        }\r\n        return activeTrades;\r\n    }\r\n\r\nevent TradeCreated(\r\n    uint256 indexed tradeId,\r\n    uint256 indexed tokenId,\r\n    address indexed seller,\r\n    address buyer,\r\n    uint256 price\r\n);\r\n\r\nevent TradeExecuted(\r\n    uint256 indexed tradeId,\r\n    uint256 indexed tokenId,\r\n    address indexed seller,\r\n    address buyer,\r\n    uint256 price\r\n);\r\n\r\nevent TradeCanceled(\r\n    uint256 indexed tradeId,\r\n    uint256 indexed tokenId,\r\n    address indexed seller,\r\n    address buyer,\r\n    uint256 price\r\n);\r\n}",
  "sourcePath": "C:\\Users\\aal\\Desktop\\code\\dfk_hero_escrow\\contracts\\HeroEscrow.sol",
  "compiler": {
    "name": "solc",
    "version": "0.8.0+commit.c7dfd78e.Emscripten.clang"
  },
  "schemaVersion": "3.4.13",
  "updatedAt": "2023-06-04T18:32:58.585Z",
  "networkType": "ethereum",
  "devdoc": {
    "kind": "dev",
    "methods": {
      "onERC721Received(address,address,uint256,bytes)": {
        "details": "See {IERC721Receiver-onERC721Received}. Always returns `IERC721Receiver.onERC721Received.selector`."
      }
    },
    "version": 1
  },
  "userdoc": {
    "kind": "user",
    "methods": {},
    "version": 1
  }
}