{
  "contractName": "HeroEscrow",
  "abi": [
    {
      "anonymous": false,
      "inputs": [
        {
          "indexed": false,
          "internalType": "uint256",
          "name": "tradeId",
          "type": "uint256"
        }
      ],
      "name": "TradeCanceled",
      "type": "event"
    },
    {
      "anonymous": false,
      "inputs": [
        {
          "indexed": false,
          "internalType": "uint256",
          "name": "tradeId",
          "type": "uint256"
        },
        {
          "indexed": false,
          "internalType": "uint256",
          "name": "tokenId",
          "type": "uint256"
        },
        {
          "indexed": true,
          "internalType": "address",
          "name": "seller",
          "type": "address"
        },
        {
          "indexed": true,
          "internalType": "address",
          "name": "buyer",
          "type": "address"
        },
        {
          "indexed": false,
          "internalType": "uint256",
          "name": "price",
          "type": "uint256"
        }
      ],
      "name": "TradeCreated",
      "type": "event"
    },
    {
      "anonymous": false,
      "inputs": [
        {
          "indexed": false,
          "internalType": "uint256",
          "name": "tradeId",
          "type": "uint256"
        }
      ],
      "name": "TradeExecuted",
      "type": "event"
    },
    {
      "inputs": [
        {
          "internalType": "address",
          "name": "",
          "type": "address"
        },
        {
          "internalType": "address",
          "name": "",
          "type": "address"
        },
        {
          "internalType": "uint256",
          "name": "",
          "type": "uint256"
        },
        {
          "internalType": "bytes",
          "name": "",
          "type": "bytes"
        }
      ],
      "name": "onERC721Received",
      "outputs": [
        {
          "internalType": "bytes4",
          "name": "",
          "type": "bytes4"
        }
      ],
      "stateMutability": "nonpayable",
      "type": "function"
    },
    {
      "inputs": [
        {
          "internalType": "uint256",
          "name": "",
          "type": "uint256"
        }
      ],
      "name": "tradeIds",
      "outputs": [
        {
          "internalType": "uint256",
          "name": "",
          "type": "uint256"
        }
      ],
      "stateMutability": "view",
      "type": "function",
      "constant": true
    },
    {
      "inputs": [
        {
          "internalType": "uint256",
          "name": "",
          "type": "uint256"
        }
      ],
      "name": "trades",
      "outputs": [
        {
          "internalType": "uint256",
          "name": "tradeId",
          "type": "uint256"
        },
        {
          "internalType": "uint256",
          "name": "tokenId",
          "type": "uint256"
        },
        {
          "internalType": "address payable",
          "name": "seller",
          "type": "address"
        },
        {
          "internalType": "address payable",
          "name": "buyer",
          "type": "address"
        },
        {
          "internalType": "uint256",
          "name": "price",
          "type": "uint256"
        },
        {
          "internalType": "bool",
          "name": "nftDeposited",
          "type": "bool"
        },
        {
          "internalType": "bool",
          "name": "executed",
          "type": "bool"
        },
        {
          "internalType": "bool",
          "name": "canceled",
          "type": "bool"
        }
      ],
      "stateMutability": "view",
      "type": "function",
      "constant": true
    },
    {
      "inputs": [
        {
          "internalType": "uint256",
          "name": "tokenId",
          "type": "uint256"
        },
        {
          "internalType": "address payable",
          "name": "buyer",
          "type": "address"
        },
        {
          "internalType": "uint256",
          "name": "price",
          "type": "uint256"
        }
      ],
      "name": "createTrade",
      "outputs": [],
      "stateMutability": "nonpayable",
      "type": "function"
    },
    {
      "inputs": [
        {
          "internalType": "uint256",
          "name": "tradeId",
          "type": "uint256"
        }
      ],
      "name": "executeTrade",
      "outputs": [],
      "stateMutability": "nonpayable",
      "type": "function"
    },
    {
      "inputs": [
        {
          "internalType": "uint256",
          "name": "tradeId",
          "type": "uint256"
        }
      ],
      "name": "cancelTrade",
      "outputs": [],
      "stateMutability": "nonpayable",
      "type": "function"
    },
    {
      "inputs": [],
      "name": "getTradeCount",
      "outputs": [
        {
          "internalType": "uint256",
          "name": "",
          "type": "uint256"
        }
      ],
      "stateMutability": "view",
      "type": "function",
      "constant": true
    },
    {
      "inputs": [],
      "name": "getActiveTrades",
      "outputs": [
        {
          "components": [
            {
              "internalType": "uint256",
              "name": "tradeId",
              "type": "uint256"
            },
            {
              "internalType": "uint256",
              "name": "tokenId",
              "type": "uint256"
            },
            {
              "internalType": "address payable",
              "name": "seller",
              "type": "address"
            },
            {
              "internalType": "address payable",
              "name": "buyer",
              "type": "address"
            },
            {
              "internalType": "uint256",
              "name": "price",
              "type": "uint256"
            },
            {
              "internalType": "bool",
              "name": "nftDeposited",
              "type": "bool"
            },
            {
              "internalType": "bool",
              "name": "executed",
              "type": "bool"
            },
            {
              "internalType": "bool",
              "name": "canceled",
              "type": "bool"
            }
          ],
          "internalType": "struct HeroEscrow.Trade[]",
          "name": "",
          "type": "tuple[]"
        }
      ],
      "stateMutability": "view",
      "type": "function",
      "constant": true
    }
  ],
  "bytecode": "0x608060405234801561001057600080fd5b50612090806100206000396000f3fe608060405234801561001057600080fd5b50600436106100885760003560e01c8063150b7a021161005b578063150b7a02146100ff5780631e6c598e1461012f578063a3031b7714610166578063ff52c4841461018457610088565b806302d2838b1461008d578063094569f2146100a95780630954d6dc146100c557806309ec6cc7146100e3575b600080fd5b6100a760048036038101906100a29190611635565b6101b4565b005b6100c360048036038101906100be9190611687565b610776565b005b6100cd610c95565b6040516100da9190611ba0565b60405180910390f35b6100fd60048036038101906100f89190611635565b6110bb565b005b61011960048036038101906101149190611591565b61130c565b6040516101269190611bc2565b60405180910390f35b61014960048036038101906101449190611635565b611320565b60405161015d989796959493929190611cf8565b60405180910390f35b61016e6113df565b60405161017b9190611cdd565b60405180910390f35b61019e60048036038101906101999190611635565b6113eb565b6040516101ab9190611cdd565b60405180910390f35b6000806001836101c49190611e58565b815481106101fb577f4e487b7100000000000000000000000000000000000000000000000000000000600052603260045260246000fd5b90600052602060002090600602019050600015158160050160019054906101000a900460ff16151514610263576040517f08c379a000000000000000000000000000000000000000000000000000000000815260040161025a90611c3d565b60405180910390fd5b600115158160050160009054906101000a900460ff161515146102bb576040517f08c379a00000000000000000000000000000000000000000000000000000000081526004016102b290611c5d565b60405180910390fd5b8060030160009054906101000a900473ffffffffffffffffffffffffffffffffffffffff1673ffffffffffffffffffffffffffffffffffffffff166102fe611403565b73ffffffffffffffffffffffffffffffffffffffff1614610354576040517f08c379a000000000000000000000000000000000000000000000000000000000815260040161034b90611c7d565b60405180910390fd5b60007330c103f8f5a3a732dfe2dce1cc9446f545527b43905060008260040154905060008360020160009054906101000a900473ffffffffffffffffffffffffffffffffffffffff169050818373ffffffffffffffffffffffffffffffffffffffff166370a082316103c4611403565b6040518263ffffffff1660e01b81526004016103e09190611a9c565b60206040518083038186803b1580156103f857600080fd5b505afa15801561040c573d6000803e3d6000fd5b505050506040513d601f19601f82011682018060405250810190610430919061165e565b1015610471576040517f08c379a000000000000000000000000000000000000000000000000000000000815260040161046890611bfd565b60405180910390fd5b818373ffffffffffffffffffffffffffffffffffffffff1663dd62ed3e610496611403565b306040518363ffffffff1660e01b81526004016104b4929190611ae0565b60206040518083038186803b1580156104cc57600080fd5b505afa1580156104e0573d6000803e3d6000fd5b505050506040513d601f19601f82011682018060405250810190610504919061165e565b1015610545576040517f08c379a000000000000000000000000000000000000000000000000000000000815260040161053c90611c1d565b60405180910390fd5b8273ffffffffffffffffffffffffffffffffffffffff166323b872dd610569611403565b30856040518463ffffffff1660e01b815260040161058993929190611b40565b602060405180830381600087803b1580156105a357600080fd5b505af11580156105b7573d6000803e3d6000fd5b505050506040513d601f19601f820116820180604052508101906105db919061160c565b50600073268cc8248ffb72cd5f3e73a9a20fa2ff40efba6190508073ffffffffffffffffffffffffffffffffffffffff166342842e0e308760030160009054906101000a900473ffffffffffffffffffffffffffffffffffffffff1688600101546040518463ffffffff1660e01b815260040161065a93929190611b09565b600060405180830381600087803b15801561067457600080fd5b505af1158015610688573d6000803e3d6000fd5b505050508373ffffffffffffffffffffffffffffffffffffffff1663a9059cbb83856040518363ffffffff1660e01b81526004016106c7929190611ab7565b602060405180830381600087803b1580156106e157600080fd5b505af11580156106f5573d6000803e3d6000fd5b505050506040513d601f19601f82011682018060405250810190610719919061160c565b5060018560050160016101000a81548160ff0219169083151502179055507f80ef05806f38eb8789ddab5e34cd350f1ff47d351308a6de7f10fedd2770afec866040516107669190611cdd565b60405180910390a1505050505050565b3373ffffffffffffffffffffffffffffffffffffffff1673268cc8248ffb72cd5f3e73a9a20fa2ff40efba6173ffffffffffffffffffffffffffffffffffffffff16636352211e856040518263ffffffff1660e01b81526004016107da9190611cdd565b60206040518083038186803b1580156107f257600080fd5b505afa158015610806573d6000803e3d6000fd5b505050506040513d601f19601f8201168201806040525081019061082a9190611568565b73ffffffffffffffffffffffffffffffffffffffff1614610880576040517f08c379a000000000000000000000000000000000000000000000000000000000815260040161087790611cbd565b60405180910390fd5b600081116108c3576040517f08c379a00000000000000000000000000000000000000000000000000000000081526004016108ba90611c9d565b60405180910390fd5b600073268cc8248ffb72cd5f3e73a9a20fa2ff40efba6173ffffffffffffffffffffffffffffffffffffffff16636352211e856040518263ffffffff1660e01b81526004016109129190611cdd565b60206040518083038186803b15801561092a57600080fd5b505afa15801561093e573d6000803e3d6000fd5b505050506040513d601f19601f820116820180604052508101906109629190611568565b905073268cc8248ffb72cd5f3e73a9a20fa2ff40efba6173ffffffffffffffffffffffffffffffffffffffff1663095ea7b330866040518363ffffffff1660e01b81526004016109b3929190611b77565b600060405180830381600087803b1580156109cd57600080fd5b505af11580156109e1573d6000803e3d6000fd5b5050505073268cc8248ffb72cd5f3e73a9a20fa2ff40efba6173ffffffffffffffffffffffffffffffffffffffff166323b872dd3330876040518463ffffffff1660e01b8152600401610a3693929190611b40565b600060405180830381600087803b158015610a5057600080fd5b505af1158015610a64573d6000803e3d6000fd5b50505050600060405180610100016040528060008054905081526020018681526020018373ffffffffffffffffffffffffffffffffffffffff1681526020018573ffffffffffffffffffffffffffffffffffffffff168152602001848152602001600115158152602001600015158152602001600015158152509080600181540180825580915050600190039060005260206000209060060201600090919091909150600082015181600001556020820151816001015560408201518160020160006101000a81548173ffffffffffffffffffffffffffffffffffffffff021916908373ffffffffffffffffffffffffffffffffffffffff16021790555060608201518160030160006101000a81548173ffffffffffffffffffffffffffffffffffffffff021916908373ffffffffffffffffffffffffffffffffffffffff1602179055506080820151816004015560a08201518160050160006101000a81548160ff02191690831515021790555060c08201518160050160016101000a81548160ff02191690831515021790555060e08201518160050160026101000a81548160ff02191690831515021790555050508273ffffffffffffffffffffffffffffffffffffffff168173ffffffffffffffffffffffffffffffffffffffff167f9becbc521284618037076683d5a5133152df3ecd867be2d0f953f6bd62f0faab6001600080549050610c769190611e58565b8786604051610c8793929190611d76565b60405180910390a350505050565b60606000805b600080549050811015610d8b5760008181548110610ce2577f4e487b7100000000000000000000000000000000000000000000000000000000600052603260045260246000fd5b906000526020600020906006020160050160019054906101000a900460ff16158015610d64575060008181548110610d43577f4e487b7100000000000000000000000000000000000000000000000000000000600052603260045260246000fd5b906000526020600020906006020160050160029054906101000a900460ff16155b15610d78578180610d7490611f57565b9250505b8080610d8390611f57565b915050610c9b565b5060008167ffffffffffffffff811115610dce577f4e487b7100000000000000000000000000000000000000000000000000000000600052604160045260246000fd5b604051908082528060200260200182016040528015610e0757816020015b610df461140b565b815260200190600190039081610dec5790505b5090506000805b6000805490508110156110b15760008181548110610e55577f4e487b7100000000000000000000000000000000000000000000000000000000600052603260045260246000fd5b906000526020600020906006020160050160019054906101000a900460ff16158015610ed7575060008181548110610eb6577f4e487b7100000000000000000000000000000000000000000000000000000000600052603260045260246000fd5b906000526020600020906006020160050160029054906101000a900460ff16155b1561109e5760008181548110610f16577f4e487b7100000000000000000000000000000000000000000000000000000000600052603260045260246000fd5b90600052602060002090600602016040518061010001604052908160008201548152602001600182015481526020016002820160009054906101000a900473ffffffffffffffffffffffffffffffffffffffff1673ffffffffffffffffffffffffffffffffffffffff1673ffffffffffffffffffffffffffffffffffffffff1681526020016003820160009054906101000a900473ffffffffffffffffffffffffffffffffffffffff1673ffffffffffffffffffffffffffffffffffffffff1673ffffffffffffffffffffffffffffffffffffffff168152602001600482015481526020016005820160009054906101000a900460ff161515151581526020016005820160019054906101000a900460ff161515151581526020016005820160029054906101000a900460ff161515151581525050838381518110611084577f4e487b7100000000000000000000000000000000000000000000000000000000600052603260045260246000fd5b6020026020010181905250818061109a90611f57565b9250505b80806110a990611f57565b915050610e0e565b5081935050505090565b6000806001836110cb9190611e58565b81548110611102577f4e487b7100000000000000000000000000000000000000000000000000000000600052603260045260246000fd5b90600052602060002090600602019050600015158160050160019054906101000a900460ff1615151461116a576040517f08c379a000000000000000000000000000000000000000000000000000000000815260040161116190611c3d565b60405180910390fd5b8060020160009054906101000a900473ffffffffffffffffffffffffffffffffffffffff1673ffffffffffffffffffffffffffffffffffffffff166111ad611403565b73ffffffffffffffffffffffffffffffffffffffff1614611203576040517f08c379a00000000000000000000000000000000000000000000000000000000081526004016111fa90611bdd565b60405180910390fd5b600073268cc8248ffb72cd5f3e73a9a20fa2ff40efba6190508073ffffffffffffffffffffffffffffffffffffffff166342842e0e308460020160009054906101000a900473ffffffffffffffffffffffffffffffffffffffff1685600101546040518463ffffffff1660e01b815260040161128193929190611b09565b600060405180830381600087803b15801561129b57600080fd5b505af11580156112af573d6000803e3d6000fd5b5050505060018260050160026101000a81548160ff0219169083151502179055507fad521b51e4183d03fdc603c126ca5614f8730f21a104f15df29625da5d479677836040516112ff9190611cdd565b60405180910390a1505050565b600063150b7a0260e01b9050949350505050565b6000818154811061133057600080fd5b90600052602060002090600602016000915090508060000154908060010154908060020160009054906101000a900473ffffffffffffffffffffffffffffffffffffffff16908060030160009054906101000a900473ffffffffffffffffffffffffffffffffffffffff16908060040154908060050160009054906101000a900460ff16908060050160019054906101000a900460ff16908060050160029054906101000a900460ff16905088565b60008080549050905090565b60016020528060005260406000206000915090505481565b600033905090565b6040518061010001604052806000815260200160008152602001600073ffffffffffffffffffffffffffffffffffffffff168152602001600073ffffffffffffffffffffffffffffffffffffffff168152602001600081526020016000151581526020016000151581526020016000151581525090565b600061149561149084611dde565b611dad565b9050828152602081018484840111156114ad57600080fd5b6114b8848285611f48565b509392505050565b6000813590506114cf81611ffe565b92915050565b6000815190506114e481611ffe565b92915050565b6000813590506114f981612015565b92915050565b60008151905061150e8161202c565b92915050565b600082601f83011261152557600080fd5b8135611535848260208601611482565b91505092915050565b60008135905061154d81612043565b92915050565b60008151905061156281612043565b92915050565b60006020828403121561157a57600080fd5b6000611588848285016114d5565b91505092915050565b600080600080608085870312156115a757600080fd5b60006115b5878288016114c0565b94505060206115c6878288016114c0565b93505060406115d78782880161153e565b925050606085013567ffffffffffffffff8111156115f457600080fd5b61160087828801611514565b91505092959194509250565b60006020828403121561161e57600080fd5b600061162c848285016114ff565b91505092915050565b60006020828403121561164757600080fd5b60006116558482850161153e565b91505092915050565b60006020828403121561167057600080fd5b600061167e84828501611553565b91505092915050565b60008060006060848603121561169c57600080fd5b60006116aa8682870161153e565b93505060206116bb868287016114ea565b92505060406116cc8682870161153e565b9150509250925092565b60006116e283836119dc565b6101008301905092915050565b6116f881611f12565b82525050565b61170781611e9e565b82525050565b61171681611e9e565b82525050565b61172581611e8c565b82525050565b600061173682611e1e565b6117408185611e36565b935061174b83611e0e565b8060005b8381101561177c57815161176388826116d6565b975061176e83611e29565b92505060018101905061174f565b5085935050505092915050565b61179281611eb0565b82525050565b6117a181611eb0565b82525050565b6117b081611ebc565b82525050565b60006117c3601c83611e47565b91507f4f6e6c792073656c6c65722063616e2063616e63656c207472616465000000006000830152602082019050919050565b6000611803601a83611e47565b91507f496e73756666696369656e74204a4557454c2062616c616e63650000000000006000830152602082019050919050565b6000611843602e83611e47565b91507f436f6e7472616374206e6f7420617070726f76656420746f207472616e73666560008301527f72204a4557454c20746f6b656e730000000000000000000000000000000000006020830152604082019050919050565b60006118a9601683611e47565b91507f547261646520616c7265616479206578656375746564000000000000000000006000830152602082019050919050565b60006118e9601583611e47565b91507f4e4654206e6f74206465706f73697465642079657400000000000000000000006000830152602082019050919050565b6000611929601c83611e47565b91507f4f6e6c792062757965722063616e2065786563757465207472616465000000006000830152602082019050919050565b6000611969601d83611e47565b91507f5072696365206d7573742062652067726561746572207468616e20302e0000006000830152602082019050919050565b60006119a9601883611e47565b91507f596f7520646f6e2774206f776e2074686973206865726f2e00000000000000006000830152602082019050919050565b610100820160008201516119f36000850182611a7e565b506020820151611a066020850182611a7e565b506040820151611a1960408501826116fe565b506060820151611a2c60608501826116fe565b506080820151611a3f6080850182611a7e565b5060a0820151611a5260a0850182611789565b5060c0820151611a6560c0850182611789565b5060e0820151611a7860e0850182611789565b50505050565b611a8781611f08565b82525050565b611a9681611f08565b82525050565b6000602082019050611ab1600083018461171c565b92915050565b6000604082019050611acc60008301856116ef565b611ad96020830184611a8d565b9392505050565b6000604082019050611af5600083018561171c565b611b02602083018461171c565b9392505050565b6000606082019050611b1e600083018661171c565b611b2b60208301856116ef565b611b386040830184611a8d565b949350505050565b6000606082019050611b55600083018661171c565b611b62602083018561171c565b611b6f6040830184611a8d565b949350505050565b6000604082019050611b8c600083018561171c565b611b996020830184611a8d565b9392505050565b60006020820190508181036000830152611bba818461172b565b905092915050565b6000602082019050611bd760008301846117a7565b92915050565b60006020820190508181036000830152611bf6816117b6565b9050919050565b60006020820190508181036000830152611c16816117f6565b9050919050565b60006020820190508181036000830152611c3681611836565b9050919050565b60006020820190508181036000830152611c568161189c565b9050919050565b60006020820190508181036000830152611c76816118dc565b9050919050565b60006020820190508181036000830152611c968161191c565b9050919050565b60006020820190508181036000830152611cb68161195c565b9050919050565b60006020820190508181036000830152611cd68161199c565b9050919050565b6000602082019050611cf26000830184611a8d565b92915050565b600061010082019050611d0e600083018b611a8d565b611d1b602083018a611a8d565b611d28604083018961170d565b611d35606083018861170d565b611d426080830187611a8d565b611d4f60a0830186611798565b611d5c60c0830185611798565b611d6960e0830184611798565b9998505050505050505050565b6000606082019050611d8b6000830186611a8d565b611d986020830185611a8d565b611da56040830184611a8d565b949350505050565b6000604051905081810181811067ffffffffffffffff82111715611dd457611dd3611fcf565b5b8060405250919050565b600067ffffffffffffffff821115611df957611df8611fcf565b5b601f19601f8301169050602081019050919050565b6000819050602082019050919050565b600081519050919050565b6000602082019050919050565b600082825260208201905092915050565b600082825260208201905092915050565b6000611e6382611f08565b9150611e6e83611f08565b925082821015611e8157611e80611fa0565b5b828203905092915050565b6000611e9782611ee8565b9050919050565b6000611ea982611ee8565b9050919050565b60008115159050919050565b60007fffffffff0000000000000000000000000000000000000000000000000000000082169050919050565b600073ffffffffffffffffffffffffffffffffffffffff82169050919050565b6000819050919050565b6000611f1d82611f24565b9050919050565b6000611f2f82611f36565b9050919050565b6000611f4182611ee8565b9050919050565b82818337600083830152505050565b6000611f6282611f08565b91507fffffffffffffffffffffffffffffffffffffffffffffffffffffffffffffffff821415611f9557611f94611fa0565b5b600182019050919050565b7f4e487b7100000000000000000000000000000000000000000000000000000000600052601160045260246000fd5b7f4e487b7100000000000000000000000000000000000000000000000000000000600052604160045260246000fd5b61200781611e8c565b811461201257600080fd5b50565b61201e81611e9e565b811461202957600080fd5b50565b61203581611eb0565b811461204057600080fd5b50565b61204c81611f08565b811461205757600080fd5b5056fea26469706673582212207fbb02a2cf33c0cfb170af2ee35db6c1c0e2e6dbe5d9a0a1c22b4731d0fe870c64736f6c63430008000033",
  "immutableReferences": {},
  "source": "// SPDX-License-Identifier: UNLICENSED\r\n// This code is released under the Unlicense, a public domain dedication.\r\n\r\npragma solidity ^0.8.0;\r\n\r\nimport \"@openzeppelin/contracts/utils/Context.sol\";\r\nimport \"@openzeppelin/contracts/token/ERC721/IERC721.sol\";\r\nimport \"@openzeppelin/contracts/token/ERC721/utils/ERC721Holder.sol\";\r\nimport \"@openzeppelin/contracts/token/ERC20/IERC20.sol\";\r\n\r\ncontract HeroEscrow is Context, ERC721Holder {\r\n    address constant HERO_TOKEN = 0x268CC8248FFB72Cd5F3e73A9a20Fa2FF40EfbA61;\r\n    address constant JEWEL_TOKEN = 0x30C103f8f5A3A732DFe2dCE1Cc9446f545527b43;\r\n\r\n    struct Trade {\r\n        uint256 tradeId;\r\n        uint256 tokenId;\r\n        address payable seller;\r\n        address payable buyer;\r\n        uint256 price;\r\n        bool nftDeposited;\r\n        bool executed;\r\n        bool canceled;\r\n    }\r\n\r\n    Trade[] public trades;\r\n    mapping(uint256 => uint256) public tradeIds;\r\n\r\n    function createTrade(uint256 tokenId, address payable buyer, uint256 price) public {\r\n        require(IERC721(HERO_TOKEN).ownerOf(tokenId) == msg.sender, \"You don't own this hero.\");\r\n        require(price > 0, \"Price must be greater than 0.\");\r\n\r\n        // Get the seller's address\r\n        address payable seller = payable(IERC721(HERO_TOKEN).ownerOf(tokenId));\r\n\r\n        // Approve the trade by setting the allowance for the HeroEscrow contract\r\n        IERC721(HERO_TOKEN).approve(address(this), tokenId);\r\n\r\n        // Transfer the NFT from the seller to the contract\r\n        IERC721(HERO_TOKEN).transferFrom(msg.sender, address(this), tokenId);\r\n\r\n        // Create the trade\r\n        trades.push(\r\n            Trade({\r\n            tradeId: trades.length,\r\n            tokenId: tokenId,\r\n            seller: seller,\r\n            buyer: buyer,\r\n            price: price,\r\n            nftDeposited: true,\r\n            executed: false,\r\n            canceled: false // Set canceled to false initially\r\n            })\r\n        );\r\n\r\n        // Emit the TradeCreated event\r\n        emit TradeCreated(trades.length - 1, tokenId, seller, buyer, price);\r\n    }\r\n\r\n\r\n    function executeTrade(uint256 tradeId) public {\r\n        Trade storage trade = trades[tradeId - 1];\r\n        require(trade.executed == false, \"Trade already executed\");\r\n        require(trade.nftDeposited == true, \"NFT not deposited yet\");\r\n        require(_msgSender() == trade.buyer, \"Only buyer can execute trade\");\r\n\r\n        IERC20 jewelContract = IERC20(JEWEL_TOKEN);\r\n        uint256 jewelAmount = trade.price;\r\n        address payable seller = trade.seller;\r\n\r\n        // Verify buyer has enough JEWEL to buy the NFT\r\n        require(jewelContract.balanceOf(_msgSender()) >= jewelAmount, \"Insufficient JEWEL balance\");\r\n\r\n        // Add a require statement to check if the contract is approved to transfer the JEWEL tokens\r\n        require(jewelContract.allowance(_msgSender(), address(this)) >= jewelAmount, \"Contract not approved to transfer JEWEL tokens\");\r\n\r\n        // Transfer JEWEL tokens from buyer to contract\r\n        jewelContract.transferFrom(_msgSender(), address(this), jewelAmount);\r\n\r\n        // Transfer NFT from contract to buyer\r\n        IERC721 heroContract = IERC721(HERO_TOKEN);\r\n        heroContract.safeTransferFrom(address(this), trade.buyer, trade.tokenId);\r\n\r\n        // Transfer JEWEL tokens from contract to seller\r\n        jewelContract.transfer(seller, jewelAmount);\r\n\r\n        trade.executed = true;\r\n        emit TradeExecuted(tradeId);\r\n    }\r\n\r\n\r\n\r\n\r\n    function cancelTrade(uint256 tradeId) public {\r\n        Trade storage trade = trades[tradeId - 1];\r\n        require(trade.executed == false, \"Trade already executed\");\r\n        require(_msgSender() == trade.seller, \"Only seller can cancel trade\");\r\n\r\n        IERC721 heroContract = IERC721(HERO_TOKEN);\r\n        heroContract.safeTransferFrom(address(this), trade.seller, trade.tokenId);\r\n\r\n        trade.canceled = true;\r\n\r\n        emit TradeCanceled(tradeId);\r\n    }\r\n\r\n    function getTradeCount() public view returns (uint256) {\r\n        return trades.length;\r\n    }\r\n\r\n    function _exists(uint256 tokenId) internal view returns (bool) {\r\n        IERC721 heroContract = IERC721(HERO_TOKEN);\r\n        return heroContract.ownerOf(tokenId) != address(0);\r\n    }\r\n\r\n    function getActiveTrades() public view returns (Trade[] memory) {\r\n        uint256 tradeCount = 0;\r\n        for (uint i = 0; i < trades.length; i++) {\r\n            if (!trades[i].executed && !trades[i].canceled) {\r\n                tradeCount++;\r\n            }\r\n        }\r\n        Trade[] memory activeTrades = new Trade[](tradeCount);\r\n        uint256 j = 0;\r\n        for (uint k = 0; k < trades.length; k++) {\r\n            if (!trades[k].executed && !trades[k].canceled) {\r\n                activeTrades[j] = trades[k];\r\n                j++;\r\n            }\r\n        }\r\n        return activeTrades;\r\n    }\r\n\r\nevent TradeCreated(\r\n    uint256 tradeId,\r\n    uint256 tokenId,\r\n    address indexed seller,\r\n    address indexed buyer,\r\n    uint256 price\r\n);\r\n\r\nevent TradeExecuted(\r\n    uint256 tradeId\r\n);\r\n\r\nevent TradeCanceled(\r\n    uint256 tradeId\r\n);\r\n\r\n}",
  "sourcePath": "C:\\Users\\aal\\Desktop\\code\\dfk_hero_escrow\\contracts\\hero_escrow.sol",
  "compiler": {
    "name": "solc",
    "version": "0.8.0+commit.c7dfd78e.Emscripten.clang"
  },
  "schemaVersion": "3.4.13",
  "updatedAt": "2023-04-06T21:26:34.713Z",
  "networkType": "ethereum",
  "devdoc": {
    "kind": "dev",
    "methods": {
      "onERC721Received(address,address,uint256,bytes)": {
        "details": "See {IERC721Receiver-onERC721Received}. Always returns `IERC721Receiver.onERC721Received.selector`."
      }
    },
    "version": 1
  },
  "userdoc": {
    "kind": "user",
    "methods": {},
    "version": 1
  }
}